:100000000C942A000C9447000C9447000C94470071
:100010000C9447000C9447000C9447000C94470044
:100020000C9447000C9447000C9447000C94470034
:100030000C9447000C9447000C9447000C94470024
:100040000C9447000C9447000C9447000C94470014
:100050000C94470011241FBECFE5D8E0DEBFCDBF12
:1000600010E0A0E6B0E0E2EAFCE002C005900D92EC
:10007000A836B107D9F710E0A8E6B0E001C01D929C
:10008000AA36B107E1F70E945F040C944F060C9466
:100090000000813029F1813038F0823009F43CC011
:1000A000833009F06EC053C0413059F42AB381E067
:1000B00090E002C0880F991F6A95E2F7282B2ABBAF
:1000C0000895442309F05DC02AB381E090E002C0A6
:1000D000880F991F6A95E2F7809582238ABB08955D
:1000E000413059F427B381E090E002C0880F991F96
:1000F0006A95E2F7282B27BB0895442309F041C0F5
:1001000027B381E090E002C0880F991F6A95E2F75B
:100110008095822387BB0895413059F424B381E050
:1001200090E002C0880F991F6A95E2F7282B24BB44
:100130000895442331F524B381E090E002C0880F94
:10014000991F6A95E2F78095822384BB0895413018
:1001500059F421B381E090E002C0880F991F6A959D
:10016000E2F7282B21BB0895442359F421B381E001
:1001700090E002C0880F991F6A95E2F7809582236C
:1001800081BB0895813081F0813028F08230A9F060
:10019000833021F51BC0613019F48FEF8ABB0895BD
:1001A0006623E1F41ABA0895613019F48FEF87BB22
:1001B0000895662399F417BA0895613019F48FEF02
:1001C00084BB0895662351F414BA0895613019F47C
:1001D0008FEF81BB0895662309F411BA0895982F13
:1001E00080B78B7F80BF913091F0913028F09230B2
:1001F000C9F0933061F521C02BB381E090E002C0DB
:10020000880F991F6A95E2F7282B2BBB089528B316
:1002100081E090E002C0880F991F6A95E2F7282BD1
:1002200028BB089525B381E090E002C0880F991F94
:100230006A95E2F7282B25BB089522B381E090E070
:1002400002C0880F991F6A95E2F7282B22BB0895F8
:10025000813079F1813038F0823009F450C0833038
:1002600009F096C071C08AB390E0062E02C0959541
:1002700087950A94E2F780FF8BC0413059F42BB385
:1002800081E090E002C0880F991F6A95E2F7282B61
:100290002BBB0895442309F07BC02BB381E090E091
:1002A00002C0880F991F6A95E2F7809582238BBB65
:1002B000089587B390E0062E02C0959587950A941D
:1002C000E2F780FF65C0413059F428B381E090E047
:1002D00002C0880F991F6A95E2F7282B28BB089562
:1002E000442309F055C028B381E090E002C0880F94
:1002F000991F6A95E2F78095822388BB089584B39D
:1003000090E0062E02C0959587950A94E2F780FF4B
:100310003FC0413059F425B381E090E002C0880F1E
:10032000991F6A95E2F7282B25BB0895442381F590
:1003300025B381E090E002C0880F991F6A95E2F72B
:100340008095822385BB089581B390E0062E02C07C
:10035000959587950A94E2F780FF1AC0413059F4C9
:1003600022B381E090E002C0880F991F6A95E2F7FE
:10037000282B22BB0895442359F422B381E090E056
:1003800002C0880F991F6A95E2F78095822382BB8D
:100390000895813051F0813030F0823041F0833067
:1003A00079F080E0089589B303C086B301C083B3B8
:1003B00090E002C0959587956A95E2F7817008955F
:1003C00080B390E002C0959587956A95E2F78170B9
:1003D0000895813049F0813028F0823039F083303F
:1003E00041F406C06BBB089568BB089565BB0895D2
:1003F00062BB0895FF920F931F93F82E80E062E096
:1004000041E00E94280180E061E040E00E94280174
:1004100004EF11E0C8010197F1F780E060E041E0EE
:100420000E942801C8010197F1F782E06F2D0E9418
:10043000E901C8010197F1F780E060E040E00E9427
:100440002801C8010197F1F71F910F91FF900895BE
:100450001F93CF93DF93EC0110E003C00E94FA01D9
:100460001F5FFE01E10FF11D80818823B9F7DF9145
:10047000CF911F9108954F925F926F927F928F92CA
:100480009F92BF92CF92DF92EF92FF920F931F93B2
:10049000DF93CF93CDB7DEB7C456D0400FB6F894F4
:1004A000DEBF0FBECDBF182F092F9C0150E040E0EA
:1004B00008C0C9016AE070E00E943C069B01542F0D
:1004C0004F5F21153105A9F7FE01319684E6DF0162
:1004D0001D928A95E9F7212F302FC9017C01BB2499
:1004E00000E010E0852E99242F013401609470946F
:1004F0002BC0C901880F991F53E0220F331F5A9553
:10050000E1F7280F391F4F5F842F90E08617970778
:1005100084F3C701B9010E943C066701C81AD90AD1
:10052000F201E00FF11FEB0DF11DC601B9010E94B0
:100530003C06605D6083015010400615170559F0B8
:10054000B2E0BB0EEC18FD08B801680D791D40E063
:1005500021E030E0D9CFC2010E942802CC59DF4F00
:100560000FB6F894DEBF0FBECDBFCF91DF911F91C4
:100570000F91FF90EF90DF90CF90BF909F908F9062
:100580007F906F905F904F900895FF920F931F930D
:10059000F82E80E062E040E00E94280180E061E007
:1005A00040E00E94280104EF11E0C8010197F1F733
:1005B00080E060E041E00E942801C8010197F1F766
:1005C00082E06F2D0E94E901C8010197F1F780E0F8
:1005D00060E040E00E942801C8010197F1F71F91F7
:1005E0000F91FF90089582E061E00E94C20080E0D8
:1005F00060E041E00E94490080E061E041E00E944B
:10060000490080E062E041E00E9449008FE00E94E2
:10061000C50288E30E94C50282E00E94C50281E013
:100620000E94C50208950F931F93182F062F8091E3
:1006300067008330B1F0843020F4823009F065C067
:1006400006C08430A1F1853009F05FC039C0812F28
:100650000E94C901882309F058C083E08093670095
:1006600054C0812F0E94C901813039F482E0809307
:1006700067001092690010926800812F602F0E941D
:10068000C901882309F041C08091680090916900F8
:1006900001969093690080936800C297B0F184E05E
:1006A0008093670010926900109268002EC0812F1D
:1006B0000E94C901813059F585E08093670027C009
:1006C000812F0E94C901882339F484E08093670058
:1006D0001092690010926800812F602F0E94C9015A
:1006E0008130A9F4809168009091690001969093FF
:1006F000690080936800C29750F082E080936700A1
:10070000109269001092680002C080E001C081E090
:100710001F910F9108954F925F926F927F928F92E7
:100720009F92AF92BF92CF92DF92EF92FF920F9380
:100730001F93DF93CF93CDB7DEB760970FB6F894D2
:10074000DEBF0FBECDBF83E089838A838B838C831A
:100750001D8291E09E8392E09F83888789878A87A4
:100760008B878C8787E08D8786E08E8785E08F87F3
:1007700084E0888B30E1C32EEE24FF24DD242E019B
:100780000894411C511C25E0622E712C6C0E7D1EBC
:1007900099E0892E912C8C0E9D1E8DE0A82EB12CF7
:1007A000AC0EBD1EF201EE0DFF1DD301AE0DBF1D3F
:1007B00080816C9140E00E94280100E010E0F4018B
:1007C000E00FF11FD501A00FB11F80816C910E9435
:1007D000C901882311F4CD2CC00E0F5F1F4F0430C8
:1007E000110569F783E060E041E00E94280183E0A1
:1007F00061E041E00E94280183E062E041E00E9464
:10080000280183E063E041E00E9428010894E11C94
:10081000F11C84E0D80E80E1D81621F68C2D60966C
:100820000FB6F894DEBF0FBECDBFCF91DF911F9101
:100830000F91FF90EF90DF90CF90BF90AF909F907F
:100840008F907F906F905F904F90089583E060E06D
:1008500041E00E94490083E061E041E00E944900DC
:1008600083E062E041E00E94490083E063E041E010
:100870000E94490083E067E00E94EF0083E067E0A8
:1008800040E00E94490083E066E00E94EF0083E0C0
:1008900066E040E00E94490083E065E00E94EF00CE
:1008A00083E065E040E00E94490083E064E00E944C
:1008B000EF0083E064E040E00E94490008952F9239
:1008C0003F924F925F926F927F928F929F92AF92E0
:1008D000BF92CF92DF92EF92FF920F931F93DF931D
:1008E000CF93CDB7DEB767970FB6F894DEBF0FBED4
:1008F000CDBF0E9426040E94F302FE0138968FE0CD
:10090000DF011D928A95E9F7DE011196E0E6F0E03D
:1009100087E001900D928150E1F7CC24B4E0BF8BC9
:1009200010E008E0A02EB12CAC0EBD1EB7E16B2E7E
:10093000712C6C0E7D1E4E010894811C911CA8E345
:100940002A2EF2E35F2EE3E34E2E71E3372E07C02B
:10095000F501EC0DF11D3082C394D12E1D2D0E94A6
:100960008B038031E1F3873009F486C0883088F446
:10097000833009F449C0843028F4813059F1823041
:10098000B0F51FC0853009F45CC0863008F066C041
:100990004BC08B3009F4A9C08C3038F4893009F48D
:1009A00089C08A3008F093C078C08D3009F4C2C085
:1009B0008D3008F4ABC08E3009F4DBC08F3079F68F
:1009C000C7C081E090E00E943B020E948B03882315
:1009D000E1F3BECF82E090E00E943B020E948B03D5
:1009E0008130E1F3F501EC0DF11D5082B5CF83E0CC
:1009F00090E00E943B020E948B038230E1F3F501FC
:100A0000EC0DF11D4082A8CF8BE20E94FA010E94FA
:100A10008B038330E1F3F501EC0DF11D8BE2808354
:100A2000C394D12E1F8A9ACF84E090E00E943B02AB
:100A30000E948B038430E1F3F501EC0DF11D84E39A
:100A400085C085E090E00E943B020E948B038530C8
:100A5000E1F3F501EC0DF11D95E345C086E090E072
:100A60000E943B020E948B038630E1F3F501EC0DFE
:100A7000F11DA6E3A08370CF8DE20E94FA010E94CF
:100A80008B038730E1F3F501EC0DF11D8DE28083DE
:100A9000C394D12EB1E0BF8B61CF87E090E00E947C
:100AA0003B020E948B038830E1F3F501EC0DF11D50
:100AB00087E34CC088E090E00E943B020E948B03D9
:100AC0008930E1F3F501EC0DF11D208245CF89E07D
:100AD00090E00E943B020E948B038A30E1F3F50113
:100AE000EC0DF11D99E3908337CF8AE20E94FA0161
:100AF0000E948B038B30E1F3F501EC0DF11D8AE2CE
:100B00008083C394D12EA2E0AF8B28CFF501119240
:100B1000E615F705E1F781E00E94C50280E80E9432
:100B2000C5020E948B038C30E1F3CC24B4E0BF8B70
:100B3000DD2414CF80E090E00E943B020E948B03F2
:100B40008D30E1F3F501EC0DF11D80E3808304CFDE
:100B50008FE20E94FA010E948B038F30E1F3F501CE
:100B6000EC0DF11D8FE28083C394D12E93E09F8B17
:100B7000F5CE80EC0E94C50220E0EE24FF2412C0D6
:100B8000C70163E0880F991F6A95E1F7EE0CFF1C1F
:100B9000E80EF91EA0EDBFEFEA0EFB1EEE0EF11CF3
:100BA000122F2F5FF501E20FF11DE081EB3231F0E2
:100BB000ED3221F0EA3211F0EF3211F7D12E212F70
:100BC0002E5F00E010E00FC0C80143E0880F991FBE
:100BD0004A95E1F7000F111F080F191F005310402D
:100BE0000E0F111D2F5FF501E20FF11DE081EE23C5
:100BF00059F7BF89B13079F0B13030F0B23091F0AF
:100C0000B33009F0ABCE19C0C4010E942802C8015C
:100C10008E0D9F1D1AC0C4010E942802C701801BAF
:100C2000910B13C0C4010E9428020E9DC0010F9DAC
:100C3000900D1E9D900D112408C0C4010E94280231
:100C4000C701B8010E942806CB010E943B0286CE54
:100C5000AA1BBB1B51E107C0AA1FBB1FA617B707E2
:100C600010F0A61BB70B881F991F5A95A9F78095FE
:100C70009095BC01CD01089597FB092E07260AD057
:100C800077FD04D0E5DF06D000201AF47095619559
:100C90007F4F0895F6F7909581959F4F0895F894AA
:020CA000FFCF84
:080CA200416E73203D200002A9
:00000001FF
